:1000000000600000001200009A980000000000004C
:1000100000000000000000000000000000000000E0
:1000200078FFE4B8200118F6D8F99000007F007E30
:1000300007E4F0A3DFFCDEFA75816402328F121F41
:1000400022122CC69001747401F0220239D974AACC
:100050007583F5758255A574557583FA7582AAA5C1
:1000600074A57583F5758255A52200022400904081
:100070007FE493FF64326003EF7002002253A87F95
:100080000080FD02252212314D9000FFE060081231
:100090002E58E49000FFF022D2AF32020878E70930
:1000A000F608DFFA8046E709F208DFFA803E888228
:1000B0008C83E709F0A3DFFA8032E309F608DFFA60
:1000C0008078E309F208DFFA807088828C83E30984
:1000D000F0A3DFFA806489828A83E0A3F608DFFA5E
:1000E000805889828A83E0A3F208DFFA804C80D2AC
:1000F00080FA80C680D4806980F28033801080A628
:1001000080EA809A80A880DA80E280CA803389827F
:100110008A83ECFAE493A3C8C582C8CCC583CCF02B
:10012000A3C8C582C8CCC583CCDFE9DEE7800D89D2
:10013000828A83E493A3F608DFF9ECFAA9F0EDFBD9
:100140002289828A83ECFAE0A3C8C582C8CCC58321
:10015000CCF0A3C8C582C8CCC583CCDFEADEE8807A
:10016000DB89828A83E493A3F208DFF980CC88F0EC
:10017000EF60010E4E60C388F0ED2402B40400501D
:10018000B9F582EB2402B4040050AF232345822347
:100190009008CE73EF8DF0A4A8F0CF8CF0A428CEF9
:1001A0008DF0A42EFE22BC000BBE0029EF8DF08442
:1001B000FFADF022E4CCF875F008EF2FFFEE33FE30
:1001C000EC33FCEE9DEC984005FCEE9DFE0FD5F067
:1001D000E9E4CEFD22EDF8F5F0EE8420D21CFEAD70
:1001E000F075F008EF2FFFED33FD4007985006D56E
:1001F000F0F222C398FD0FD5F0EA22C2D5EC30E729
:1002000009B2D5E4C39DFDE49CFCEE30E715B2D500
:10021000E4C39FFFE49EFE120986C3E49DFDE49CB7
:10022000FC800312098630D507C3E49FFFE49EFEDD
:1002300022C5F0F8A3E028F0C5F0F8E58215827039
:10024000021583E038F022BB010A89828A83E0F537
:10025000F0A3E022500687F009E71922BBFE07E36E
:10026000F5F009E3192289828A83E493F5F0740199
:100270009322BB0110E58229F582E5833AF583E0FC
:10028000F5F0A3E0225009E92582F886F008E6227D
:10029000BBFE0AE92582F8E2F5F008E222E5832AAE
:1002A000F583E993F5F0A3E99322BB010789828ADC
:1002B00083020A11500B09C5F027F7C5F01937F76B
:1002C00022BBFE0D09F8E325F0F3C5F019E338F37E
:1002D00022F889828A8374019325F0C5F0F8E493AB
:1002E0003822BB010DC58229C582C5833AC5830268
:1002F0000A115011C58229F808E5F026F618F5F024
:10030000E58236F622BBFE11C58229F808E225F007
:10031000F5F0F218E23582F222F8E58229F582E55D
:10032000832AF58374019325F0F5F0E4933822BB1A
:10033000010A89828A83F0E5F0A3F0225006F709CA
:10034000A7F01922BBFE06F3E5F009F31922F8BB6A
:100350000111E58229F582E5833AF583E8F0E5F0BD
:10036000A3F0225009E92582C8F608A6F022BBFEB8
:1003700009E92582C8F2E5F008F22275F0087582D5
:1003800000EF2FFFEE33FECD33CDCC33CCC582331F
:10039000C5829BED9AEC99E58298400CF582EE9B24
:1003A000FEED9AFDEC99FC0FD5F0D6E4CEFBE4CD42
:1003B000FAE4CCF9A88222B800C1B90059BA002DDC
:1003C000EC8BF084CFCECDFCE5F0CBF97818EF2F95
:1003D000FFEE33FEED33FDEC33FCEB33FB10D703C4
:1003E000994004EB99FB0FD8E5E4F9FA227818EF6D
:1003F0002FFFEE33FEED33FDEC33FCC933C910D7CC
:10040000059BE99A4007EC9BFCE99AF90FD8E0E4D8
:10041000C9FAE4CCFB2275F010EF2FFFEE33FEEDAE
:1004200033FDCC33CCC833C810D7079BEC9AE8997E
:10043000400AED9BFDEC9AFCE899F80FD5F0DAE460
:10044000CDFBE4CCFAE4C8F922EB9FF5F0EA9E423A
:10045000F0E99D42F0EC6480C864809845F022EB9E
:100460009FF5F0EA9E42F0E99D42F0E89C45F022BB
:10047000E8600FECC313FCED13FDEE13FEEF13FF6A
:10048000D8F122ECF0A3EDF0A3EEF0A3EFF022A858
:10049000828583F0D083D082120C86120C86120CD7
:1004A00086120C86E473E493A3C583C5F0C583C8A4
:1004B000C582C8F0A3C583C5F0C583C8C582C8225C
:1004C000A42582F582E5F03583F58322EC8EF0A435
:1004D000CCC5F0CCCDF8EFA4CEC5F02DFDE43CFCAE
:1004E000E8A42EC8C5F03DFDE43CFCEFA4FFE5F018
:1004F00028FEE43DFDE43CFC22EF4E6012EF60017B
:100500000EEDBB010B89828A83F0A3DFFCDEFA22A9
:1005100089F05007F709DFFCA9F022BBFEFCF309C4
:10052000DFFCA9F02290012BE0FBA3E0FAA3E0900E
:1005300002A5F9E0FF75F002A4F58285F083120AA6
:1005400052FDACF090012EE0FBA3E0FAA3E0F9220B
:100550009002A4E0FF75F002A4F58285F083020A00
:10056000529002A4E0FBEF240CFFEE34FEFE7C0070
:100570007D0A1209747D32120986EF24F4FFEE34ED
:1005800001FEEB25E0240AF582E43401F583229094
:10059000019FE0FFED2407F582E43CF583EFF022B4
:1005A000EF75F002A4F58285F08322C201C20474C3
:1005B0005B2BF582E43401F583E4F074612BF58262
:1005C000E43401F583222475F582E43401F583E0F7
:1005D00075F002A42440F582E5F0342EF5832274F0
:1005E0006A2FF582E43400F583E0FEEF25E0242C49
:1005F000F582E4342EF583E49324C0F582E4342EAE
:10060000F583EEF0229002A9E0FD25E02449F58271
:10061000E43401F583229002B6E0FCA3E0FD240758
:10062000F582E43CF583E090019FF054F0FFF02266
:100630009002A5E025E0244FF582E43401F5832201
:100640009002A9E0FF2458F582E43401F583E00428
:10065000F074582FF582E43401F583229002A7E06C
:10066000FEA3E0FF900150E02FF090014FE03EF03C
:10067000E0FEA3E0FFD322F0EF25E025E0249BF588
:1006800082E43439F583E49322F582E43AF583EF8A
:10069000F022E0FEA3E02DFFEE35F0CDEFCDFF9090
:1006A00002B6E0FAA3E0FB22F090019104F0E4909E
:1006B000010CF0A3F0A3F0A3F022E0FF9002B6E05B
:1006C000FCA3E022241AF582E43EF583229002B6D0
:1006D000E0FEA3E0229002A5E0245EF582E434016E
:1006E000F58322745B2BF582E43401F58322F583D4
:1006F000E493FC740193FDEF25E02274622BF582F4
:10070000E43401F583E4229002A6E0FEA3E0FF2298
:1007100074222FF582E43401F5832225E02410F5BC
:1007200082E43401F58322E4900165F0900198227F
:10073000C3E0FDEF9D7480F86E9822902EC0740285
:10074000F022EC8DF0020B2E25E02404F582E43437
:1007500001F583E5F0F0A322F0C201C204E49001A8
:1007600066F0900199F022F582E43401F583E022ED
:10077000120A27FFAEF090012B22FDACF090012B66
:1007800022A3F0A37401F0A322C39DFFE5F09CFE19
:10079000229002A5E0FD7F05229002A5E0FD7F04E6
:1007A00022E4F0A3F090012B22F5ABF5AD7589FFA3
:1007B0007599FF22E0FEA3E0C394B4EE94002224D6
:1007C00016F582E43401F58322241CF582E4340119
:1007D000F583229002A4E004F022120A27C39FFFAF
:1007E000E5F09E22121A94121AD1900232121A9730
:1007F000F9120A27FDACF0D39FEC9E4038121A94F0
:10080000121C16ED9FFFEC95F0FED3EF9430EE94A2
:1008100075400D9002A67475F0A37430F00210605C
:10082000121AD2900232121A97121BDB9002A6F013
:10083000A3EFF0804B900232121A97121AD1121ABB
:1008400094F9120A27FDACF0C39FFFEC9EFED3EF94
:100850009410EE9427400C9002A674D8F0A374F084
:10086000F08016900232121A97121C16ED9FFEECC1
:1008700095F09002A6F0A3CEF0E49002A6F0A3F0CB
:1008800090025CE0604F121B21D39400EE648094D0
:1008900080401B90024A121A97F9120A27FDD3EFE3
:1008A0009DEE95F0400890017E121B958023D39019
:1008B000017FE0940090017EE094004014900235A6
:1008C000121A97F9120A27FF9002A6E5F0F0A3EF9B
:1008D000F0D20B800F900182121B4AE4F548F549D3
:1008E000F54AF54BD39002A7E094009002A6E0648D
:1008F000809480500302123CE0F9A3E0FF9002359F
:10090000121A97121AE1121B21EE3395E0FDFCE456
:100910007BB87A88F9F8C3120C29500A9002A674A1
:1009200088F0A374B8F0D3900181E0940090018026
:10093000E09400500790001BE0B4201D121B21C35F
:100940009496EE648094805010EF9400EE6480944E
:100950008040257C007D0A801430001C121B21C3BE
:1009600094A0EE6480948F500F7C007D321209DBDE
:100970009002A6EEF0A3EFF090025CE0700302128A
:1009800017900182E07002A3E06003021217E549AC
:100990004548700C9002A6E0F548A3E0F5498016A2
:1009A0009002A7E02549FF9002A6E03548121B2AD5
:1009B000F548EF13F549C3E54D94A0E54C940F407D
:1009C0000F85484A85494BE4F548F549F54CF54D06
:1009D000D3E54B9400E54A94004030121B21954B1F
:1009E000EE954A501AC3EF954BFFEE954AFEC3EFC2
:1009F0009464EE94005008121BE6E4F54E800CE57A
:100A00004EC394055005121BE6054E90023E121A85
:100A100097121AD17C007D0F120CAC9002A6121A0C
:100A2000BFEE3395E0FDFCEB7B10121B0F90023EF6
:100A3000121A97F9EE800F9002A6E0F9A3E0FF905A
:100A4000023E121A97C98FF0120B0F90023E121A33
:100A500097F9120A2724A8FFE5F0801D90023512AD
:100A60001A97121B5290023E121A97121B529002B2
:100A7000A7E024A8FF9002A6E03461F990023B129F
:100A80001A97121AE122208A030214E990017AE0EF
:100A90007002A3E060030214E9121B8160030214D8
:100AA000E990025CE0704C900247121A97121AD13A
:100AB000900235121A97F9120A27D39FE5F09E404B
:100AC000030214E9900232121A97F9120A27121A35
:100AD00093F9E5F08FF0120B0F121B00E490029BCC
:100AE000F0A3F0121B47121BBD90017E121C0CF5E7
:100AF0005F8003755F0075600CE4F5B2F5BA1237DC
:100B00007290029FE0F54FA3E0F550C20930060352
:100B10000214CB758D20438D20758D8043AA08D299
:100B2000AF758B02758EAF200624121B81701F20BB
:100B30000C1CE5DB20E217758AC4200C0DE5DB20D8
:100B4000E2087587030000008006D2098002D209FE
:100B5000758B11758A5053AAF7D3900179E0949060
:100B6000900178E09401400EA3E02470F0900178A9
:100B7000E034FEF08007E4900178F0A3F090005597
:100B8000E075F003A4902EC3F0A3E4F0A3F0121AD2
:100B9000E753997F7402F0902EC07419F0902EC024
:100BA000E030E2F9902EC0E4F0902E02E0F561A36F
:100BB000E0F562438902121AED43800285612485C3
:100BC0006225902EC5E4F043998090028FE524F0D1
:100BD000A3E525F0C3E5509525FFE54F9524FE12CA
:100BE00039C48E518F52121C1D40030214BBAE2417
:100BF000AF257C007D10120CAC121C277FE07ED14B
:100C0000121AAEFBD3120C3F9002A44017121BF134
:100C100094E0FFEE94D1FEED9400FDEC9400FC1204
:100C20001C278007120C6F000000007F607EEA1214
:100C30001AAEFBD3120C3F400A9002A4120C6F00B4
:100C400000EA60900232121A97121AD17C007D09D4
:100C5000120CAC121AB17B0A121B0F121C27900245
:100C60005CE07038AE4FAF50FC7D09120CACC8ECA4
:100C7000C8C9EDC9CAEECACBEFCBE4FCFDEB252514
:100C8000FFEA3524121BA9E47B0A121B1B8E4F8F2F
:100C9000509002A4121A8D121AE1803F9002A4A370
:100CA000A3E0F9A3E0FF900232121A97121AE112A0
:100CB0001A94121AD1E4FCFD121AB1FBD3120C3FA4
:100CC0004029121A94121AD1900232121A97121B4A
:100CD000DBFEC3EF9564EE9563401020090D121CF6
:100CE0001D5008121B8170030212ED9002A1E00456
:100CF000F07E007F057D007B007A007953120CD9CD
:100D0000121A9F90025D7401F022E4FB120D9BE029
:100D10006401600302171F120EC3E0FA600302159C
:100D2000D3EB64017067120DF6BF2003D38001C3BB
:100D30004005E490019FF0900199E0FF6401701C70
:100D4000900198E090019FB4010AE04409F0C201CB
:100D5000D2048025E04401120F38802EEF64027027
:100D60001E900191E06007120D9BE4F0800B900152
:100D70009FE04405F0C201C204120EDBF0800B902C
:100D8000019FE04401F0C201C204120D6FEB640246
:100D9000704D120DF6BF2003D38001C34005E490CF
:100DA000019FF0900199E0FF6401701C900198E0B0
:100DB00090019FB4010AE04406F0D201C204801CF5
:100DC000E04404120F388014EF90019FB40205E054
:100DD00044058003E04404F0C201C204120D6F9088
:100DE0000191E06002E4F0900184E4F0A37464F007
:100DF000021712EA64016003021712EB6401600338
:100E00000216A9120EAD2407F582E43E120E04BFAD
:100E10002003D38001C34005E490019FF090019826
:100E2000E0FF640270499001A0E0FCA3E0C394B429
:100E3000EC9400400E900194E0FCA3E094B4EC9498
:100E400000501FC201C204120EC3E4F0745C2BF503
:100E500082E43401120D97E4F0120EDB120E8802C8
:100E600016A090019FE0440AF0D201D204803FEF27
:100E70006401704C900194120E50943CEE9400402A
:100E80001BEF94B4EE940050139001A0120F9450F5
:100E90000B120D8BE4F0120F08120E88900166E021
:100EA00090019FB4010EE04406F0D201C204120E7C
:100EB000DBF0800CE04402F0D201C204120F07F014
:100EC00090019F120E9A120D75EB64027064120D60
:100ED000F6BF2003D38001C34005E490019FF0904A
:100EE00001A0120E50943CEE9400401BEF94B4EE1F
:100EF00094005013900194120F94500B120D8BE438
:100F0000F0900165120E88900165E06401702090F8
:100F10000199E090019FB4010AE04409F0C201D2B6
:100F200004800CE04408F0C201D204120F07F01252
:100F30000D6F120D9BE4F0900191E07002C28A0BDC
:100F4000EB640360030214EC7F04229002A5EFF02F
:100F50009002A87408F02405A3F0120D249002A5B5
:100F6000120D33120F5A120D2775F002EF120D38C1
:100F7000120F699002A6F0A3EFF01239C49002A8F4
:100F8000120F1040030217EC9002A5E0FF120EB9F9
:100F9000E0600AEF120E14E4F0A3F0800C120EE7EA
:100FA000120E10EE8FF0120A11120E10120E509443
:100FB0000FEE6480948040199002A5E0FD120E149B
:100FC000E4F0A3F0120D24ED120D81E475F0018020
:100FD00021C3EF94F1EE6480947F50199002A5E054
:100FE000FF120E14E4F0A3F0120D24120D8074FF12
:100FF000F5F0120AC29002A5E0FD2422120EF3E4DD
:10100000F07F04123866120F710218B39002A5E047
:10101000FF2422120EF3E07048120EF07401F01259
:101020000EE71239C4C3EF9432EE648094805031DD
:1010300090012B120D279002A5E0120D35FBAAF0AE
:10104000120EE77C007D031209DBC3EB9FFFEA9ED3
:10105000FE120D249002A5E0120D81EE8FF0120B0E
:101060002E120EE71239C49002A5E0FD120EFBE02D
:10107000FAA3E0D39FEA9E4026745E2D120EBBE0D9
:1010800070239002A5E07F051231D1120F71122E4C
:10109000F8EF6011120D05120D80120F228006125A
:1010A0000F71123866C39002A7E094F89002A6E090
:1010B0006480947F501A120F791231D1120F791275
:1010C0002EF8EF6011120D05120D80120F2280060E
:1010D000120F79123866120D249002A5120D3312E8
:1010E0000F5A120D2775F002EF120D38120F69908A
:1010F0000134120D279002A5E0120D81EE8FF0024F
:101100000B2E9002A4747EF0E4A3F09002A5E0FD03
:10111000C394034003021A387F02122EF8EF6004D2
:10112000120F07F09002A5E0FF245B120EC6E060EC
:10113000030219C4EFB4010F120D63E0FFA3E090A6
:1011400001A0CFF0A3EFF09002A5E0B4020F120DC2
:1011500063E0FFA3E0900194CFF0A3EFF09002A52D
:10116000E0FF25E0120F9FE0FCA3E0FDEF120D630E
:10117000E0FEA3E0C39DEE9C40449002A5E09002F7
:10118000A4F0245B120EC67401F0900165E004F037
:10119000900198F09002A5E0FD2461120D9E74016B
:1011A000F0E4FF121A7F121A7F1231D19002A5E0EB
:1011B000FD7F081231D1120EB57401F08012900239
:1011C000A5E0FDE4FF122EF8EF6005120EB5E4F085
:1011D0009002A5E0FD7F01122EF8EF6072E490010D
:1011E00066021A2A9002A5E0FF25E0120FA9E0FC92
:1011F000A3E0FDEF120D63E0FEA3E0C39DEE9C4073
:10120000399002A5E0FD9002A4F07F08122EF8EFBD
:10121000603D90012BE0FBA3E0FAA3E09002A51251
:101220000D12120D80120F22121A472461120D9E08
:101230007401F0900166E0048010121A47246112D4
:101240000D9E7401F0900166E004F0900199F09019
:1012500002A5E004F00218EB9002A4E0FF900170F8
:10126000E06F6002EFF0229002A5E0FD245BF582C2
:10127000E43401F583E4F07F081238669002A5E0BB
:10128000FDE4FF1231D19002A5E0FD7F0112386626
:101290009002A5E0FD7F011231D19002A5E022125B
:1012A00038669002A5E0FD7F022290025EA3A3E0D3
:1012B000F9A3E0FF900238E0FBA3E0FAA3E0227F6D
:1012C000077A0079587E007D007B00020CD9E4FD8E
:1012D000FC9002A4E0F8A3E0F9A3E0FAA3E022C89E
:1012E000ECC8C9EDC9CAEECACBEFCBE0FEA3E0FF64
:1012F00022F9120A27FFAEF022A3F0A37401F0A393
:1013000022C98FF0020B0F43AB025389FD5395FDA9
:101310005396FD22E50A25E02426F8E6FE08E6229B
:101320007F087A02795E7E007D007B01020CD92F56
:10133000FFEA3EFEE93DFDE83CFCE4FAF9F8020B69
:10134000979002A6E0FEA3E0FF22FEEF2401FFE457
:101350003EC31322E50D25E02493F582E43402F523
:1013600083E0FEA3E0FF2290017C7403F0A374E805
:10137000F022F9E4F5F0020B0F902E42E0FEA3E01C
:10138000FF7C007D14020974E4F50EF50DF50CF5F3
:101390000B22E4FDFCAB0EAA0DA90CA80BD3020C8A
:1013A0003F90001BE0642022D3EF9414EE648094FD
:1013B000802290017AE4F0A37464F022902EC0742D
:1013C00002F0902EC4E4F0A322FEED39FDEC38FCCF
:1013D00022E0FEA3E0FBCAEECAE4F9F822E49001A1
:1013E00080F0A3F02290028FE55AF0A3E55BF02293
:1013F00025E02426F8A60F08A61022F9120A27C312
:101400009FFFE5F09E229002A6E54AF0A3E54BF08F
:1014100022E0FCA3E0FDA3E0FEA3E022F9746175E5
:10142000F0A8020B0F90003A7410F022F0A3F09095
:101430000184F0A3F022F9120A27FFC322C3E55268
:101440009560E551955F229002A4020C63900174AF
:10145000E024FE601C14602F147003021D6D240331
:101460006003021DC59001747402F01232D4122D73
:10147000FC1208667F017E00123030900174740304
:10148000F0E4900197F02212396790016DE070034B
:10149000021D4E900197E004F0E49002A3F0900248
:1014A000A3E0FFC394034003021D49900128120DDD
:1014B000279002A3E0FE120D1575F002EE120D84C6
:1014C000120F22900128120D279002A3E0FE120DA8
:1014D00035120F5A120D2775F002EE120D84120FFD
:1014E00022EF64017039120EADFF240A120EA6E439
:1014F000F0EF240B120EA6E4F0900128120D2790B5
:1015000002A3E0120D35E5F0120E9BFD240E120D24
:10151000779002A3E0120D35FFED240F120D7790A6
:1015200002A3E064027039120EADFF240C120EA665
:10153000E4F0EF240D120EA6E4F0900128120D271E
:101540009002A3E0120D35E5F0120E9BFD2410125F
:101550000D779002A3E0120D35FFED2411120D77E7
:101560009002A3E004F0021C7EE490016DF0900173
:1015700097E0C39403406E900103747EF0E4900101
:101580006EF0900197F09001747404F022123352BF
:1015900012353E9002A2E070031239671233529066
:1015A000016DE0640170331229DF123352E49002BE
:1015B000A3F09002A3E0FFC39403500E12206D121B
:1015C00033529002A3E004F080E81218E21214EA09
:1015D000900174EFF0E490016DF0900189E0A3F0C8
:1015E000E4900189F022E4F50BF50CF50DF50E12EF
:1015F0001B9C7402F053997FE4F50A121AE7902EAF
:10160000C07419F0902EC0E030E2F9902EC0E4F0E2
:10161000438902121AED438002902E02E0FEA3E0FD
:10162000250CF50CEE350BF50B050AE50AB403CBDA
:10163000439980902EC5E4F0850B0F850C10900225
:1016400089E50FF0A3E510F0A3E50DF0A3E50EF09A
:10165000AF10AE0F122B6390028FEEF0A3EFF0905D
:10166000028DE50BF0A3E50CF090017EE07002A383
:10167000E0700790001BE0B42003121A9FE5594563
:1016800058700C90028FE0F558A3E0F55980169041
:101690000290E02559FF90028FE03558121B2AF581
:1016A00058EF13F559C3E55D94D0E55C9407400FFE
:1016B00085585A85595BE4F558F559F55CF55DD3C5
:1016C000E55B9400E55A9400405B900290E0955BE6
:1016D000FF90028FE0955AFE9002AAF0A3EFF0D39C
:1016E00094F9EE6480947F4015E094079002AAE09C
:1016F000648094805008121BC5E4F55E8027900238
:10170000AAE0FEA3E0FF1239C4D3EF940FEE648089
:1017100094804005121A9F800CE55EC39405500525
:10172000121BC5055E90028FE0F546A3E0F54778F1
:10173000267C007D007B007A0079287E007F2002D5
:10174000094E7E007FFF7D007B017A007904120C38
:10175000D99002B67400F0A37404F09001287401CB
:10176000F0A37400F0A374B8F090012E7401F0A3FC
:101770007400F074AC120F617400F0A37494F090D4
:10178000012B7401F0A37400F0A374C6F09001342F
:101790007401F0A37400F074D2120F617400F0A30E
:1017A000741F120F627401F0A37402F0902DE0E434
:1017B00093120E9BFDF5828C83A3EFF0900002E064
:1017C000FFED2404120D77900001E0FFED240512D7
:1017D0000D77900003E0FFED2406120D77902DE2C7
:1017E000E493FFED2412120D77902DE3E493FFEDC7
:1017F0002414120D7790013D7401F0A37400F0A33E
:10180000743CF0E4FF75F002EFA42401F582E5F0EA
:10181000342EF583E493FE74542FF582E43400F5FE
:1018200083EEF0EF25E0242DF582E4342EF583E4F9
:1018300093FE746A2FF582E43400F583EEF0120D06
:10184000BF0FEFB416BF902F56E0900058F0902FC6
:1018500056E090006EF0902F56E0900059F0902FD7
:1018600056E090006FF09000FF7401F09000FEF0E1
:1018700090003A7410F090001BF0900028F0A374D0
:1018800020F09001787413F0A37488F0229002A4E1
:10189000EFF0120D24120D30120F5A120D2775F0B1
:1018A00002EF120D38C39DE5F09C402990012BA357
:1018B000A39002A4E0120D35FDEF120F28EDF09079
:1018C0000134120D27120D30FDEF120D63E5F0F01B
:1018D000A3EDF0801F9002A4E0FF120D63120F81B0
:1018E000120D2775F002EF120D38FF9002A4E012DE
:1018F0000F28EFF09002A4E0FF120D63E0FCA3E0DC
:10190000C39432EC94005008EF120D63E4F0A3F09E
:101910009002A4E0FF64017050EF120D63120E50AC
:1019200094F4EE94014008120D41EEF0A3EFF09014
:1019300002A4E0FD120D63E0120E7E240A120E696D
:10194000ED120D63A3E0FFEB240B120E69120D24C0
:10195000120D30FDEF120D63120E72240E120E697D
:10196000CFEDCFEB240F120E699002A4E0FF6402CA
:101970007050EF120D63120E5094F4EE9401400873
:10198000120D41EEF0A3EFF09002A4E0FD120D6302
:10199000E0120E7E240C120E69ED120D63A3E0FF1F
:1019A000EB240D120E69120D24120D30FDEF120DF5
:1019B00063120E722410120E69CFEDCFEB241112B8
:1019C0000E6922121B68F515F5168526118527125A
:1019D000852613852714F50A121AF4FFD3E5149F00
:1019E000E5139E40078E138F14850A16C3E5129FD8
:1019F000E5119E50078E118F12850A15050AE50A1A
:101A0000B410D5E4F50FF510F50AE516650A602E59
:101A1000E515650A6028E510450F7010E50A25E018
:101A20002426F8E6F50F08E6F5108012121AF425C0
:101A300010FFE50F3E121B2AF50FEF13F510050AF4
:101A4000E50AB410C590029FE50FF0A3E510F0E59C
:101A500016C3940D5005E516121BD0E515C3940D61
:101A60005005E515121BD0121B68F50A121AF4FF77
:101A7000C3E5109FFFE50F9EFE1239C4121B88407C
:101A80000FE4FCFDE50E2510F50EE50D350F800F7A
:101A9000121AF4FFE4FCFDE50E2FF50EE50D3EF500
:101AA0000DED350CF50CEC350BF50B050AE50AC30D
:101AB000941040B87FE07ED1121B72401AE50E945C
:101AC000E0F50EE50D94D1F50DE50C9400F50CE56F
:101AD0000B9400F50B8003121B687F607EEA121BDB
:101AE00072400BE4750E60750DEAF50CF50BAE0D4A
:101AF000AF0E2290029BE0FEA3E0FFC39404EE949D
:101B000000502F900230E0FCA3E0FDEF25E0FFEE57
:101B100033FE74932FF58274023EF583ECF0A3ED4F
:101B2000F090029CE004F0700690029BE004F0024A
:101B300023A2750D01121B34E50D25E02491F582D9
:101B4000E43402F583EEF0A3EFF0050DE50DB404E7
:101B5000E4900232121A97F9120A27FF900230E03D
:101B6000FCA3E0FDC3EF9DFFE5F09CFE1239C4C36A
:101B7000EF9428EE64809480503990025CE07021EC
:101B8000121A94121C16900231E09FFF900230E06E
:101B900095F0FE1239C4C3121B895005900238809B
:101BA00003900232121A97F9120A27FF900299E560
:101BB000F0800B900230E0FFA3E0900299CFF0A3F9
:101BC000EFF0E4F50CF50BF50AF509F50DD39002ED
:101BD0009CE0950D90029BE09400401E121B34E4A3
:101BE000FCFDE50C2FF50CE50B3EF50BED350AF58C
:101BF0000AEC3509F509050D80D3AF0CAE0BAD0A23
:101C0000AC09EEC0E0EFC0E090029B121BB1D0E047
:101C1000FFD0E0FE120B978F0C8E0B8D0A8C0922E1
:101C2000C0E0C083C082C0D0ECC0E0EDC0E0EEC038
:101C3000E0EFC0E0D2AFE5DB30E419D20CC208E53A
:101C4000DB30E102802E9002B5E5DFF09002B8E4CF
:101C5000F002250AE5DB30E50FD206300805C208A0
:101C600002250AC20C02250AC208E5DB30E132E592
:101C7000DB30E0091238C0E0F5DF02250A9002B936
:101C8000E0FFB4080F208A0CD28A1238DD24071234
:101C900038CDE4F0EF641A600302250AD20702256A
:101CA0000A9002B8E0700FA3E5DFF09002B874016B
:101CB000F0D20802250A9002B9E090370893FFB4E9
:101CC000FF0E9002B5E5DFF09002B9E004F0805A13
:101CD000EF640F70299002B9E0FFA3E0FCA3E0FDE0
:101CE0001238CCE0540FF09002B9E0FF04F0ED128E
:101CF00038CCE0FFE5DF54F0FEEF4EF0802C1238D8
:101D0000C0E5DFF09002B9E0FFB4090B1238DD2422
:101D1000081238CDE0F5D3EFB40A0F9002B6E0FE1A
:101D2000A3E024091238E5E0F5D475DBFFD0E0FF2D
:101D3000D0E0FED0E0FDD0E0FCD0D0D082D083D087
:101D4000E032C0E0C083C082C0D0D2AF900189E051
:101D500004F0D3900179E09400900178E094004081
:101D60000CA3E024FFF0900178E034FFF0D3900161
:101D70007BE0940090017AE09400400CA3E024FF03
:101D8000F090017AE034FFF0D390017DE094009070
:101D9000017CE09400400CA3E024FFF090017CE083
:101DA00034FFF0D390017FE0940090017EE0940036
:101DB000400CA3E024FFF090017EE034FFF0D390CC
:101DC0000181E09400900180E09400400CA3E024A5
:101DD000FFF0900180E034FFF0D3900187E09400A1
:101DE000900186E09400400CA3E024FFF09001866F
:101DF000E034FFF0D3900185E09400900184E094FA
:101E000000400CA3E024FFF0900184E034FFF0D305
:101E1000900183E09400900182E09400400CA3E0E4
:101E200024FFF0900182E034FFF0C3E55D94D0E53B
:101E30005C94075008055DE55D7002055CC3E54DE7
:101E400094A0E54C940F5008054DE54D7002054CEB
:101E5000D0D0D082D083D0E0329002A9EFF09001B0
:101E60002B120D279002A9120D33FDACF090012822
:101E7000120D2775F002EF120D38120F69120DE5E1
:101E8000EE8FF0120A11ED120DEAE0FEA3E0FF1250
:101E900039C4D3EF9414EE6480948050589002A912
:101EA000E0120DEA120E509403EE64809480401606
:101EB000120DE5120F81120D2775F002ED120D843F
:101EC000E475F0018020C3EF94FDEE6480947F50B0
:101ED000189002A9E0FF120DEA120F81120D2712CD
:101EE0000D8074FFF5F0120AC29002A9E024581286
:101EF0000E34E4F0229002A9E0120DEAE0FEA3E025
:101F0000FF1239C49002A9E0120EFBE0FCA3E0D35B
:101F10009FEC9E400B120E20E0D3940240378009C4
:101F2000120E20E0D39401402C9002A9E0FF120D84
:101F3000EAE4F0A3F0900128120D2775F002EF12E9
:101F40000D38120F53120D279002A9E0120D81EEE9
:101F50008FF0120B2E2290025CE06006121B000232
:101F6000282A90025E121AB4FBE9C0E0EAC0E0EB56
:101F7000C0E0900232121A97F9120A27FFE4FCFD22
:101F8000D0E0FBD0E0FAD0E0F9EB2FFFEA35F01219
:101F90001BA990025E120C63900263E004F07006CD
:101FA000900262E004F090017CE07002A3E0600324
:101FB00002282D90025E121BF1FFEEC0E0EFC0E0A0
:101FC000A3121BB1D0E0FFD0E0FE120B9790025E8F
:101FD000120C63121A94F9120A27241EFFE435F03A
:101FE000FEE4FCFD90025E121AB4FBD3120C3F40DB
:101FF00039900178E07002A3E0702F200B2C900242
:1020000065E004F07006900264E004F0D39002658D
:10201000E09405900264E09400401E121A8A121A9D
:10202000E1E4900264F0A3F0800F121A8A121AE120
:10203000E4900264F0A3F0C20B90025E120C6F00F9
:10204000000000E4900262F0A3F0121B472290020D
:10205000A8EFF09002ADE4F0A374FFF0E4A3F0A3C6
:10206000F0A304F0A374FFF0120F1B902EC37408AA
:10207000F0E49002A9F0A3F09002A9E0FEA3E0FF33
:10208000C39409EE94004003022913EF9407EE94E1
:102090000040067E007F0180199002A9A3E004FFA2
:1020A000E47E01C8EFC8088006CEA2E713CE13D89D
:1020B000F8FF9002ABEEF0A3EFF0902EC07419F091
:1020C000902EC0E030E2F99002A8E0FF75F002A483
:1020D0002400120DB6E0FCA3E0FD120F1BD3ED941B
:1020E000FFEC940F40179002ABE0FCA3E0FD75F00D
:1020F00002EF120DB3EC8DF0120A1180259002A8A8
:10210000120DAFC083C082E0FEA3E0FF9002ABE0FF
:10211000FCA3E0FDC3EF9DFFEE9CD082D083F0A333
:10212000EFF09002AAE004F070069002A9E004F03B
:102130000228587F00229002A57408F02405A3F01D
:10214000E4FF122639120D24120F50120D27120F20
:10215000BAFE9002A7F0A3EFF01239C49002A512C4
:102160000F10501C120E3C940AEE648094804002C2
:102170008044C3EF94F6EE6480947F50650229B1E9
:102180009002A7E0FEA3E0FF1239C49002A6D3128A
:102190000F11401690012B120D27120A27FF120D66
:1021A00024E5F08FF0120B0F8038120E3C9464EE91
:1021B000648094804010E490014FF0A3F0120D244D
:1021C000E475F0018019C3EF949CEE6480947F5015
:1021D00011E490014FF0A3F0120D2474FFF5F012FA
:1021E0000A8A120D24120F50120D27120FBAF990FD
:1021F0000134E0FBA3E0FAA3E0C98FF0020B0F1259
:102200002916E49002A4F09002A4E0FFC3940340D6
:1022100003022A9DEF607A1226399002A4E0FF1291
:10222000172B300319200116200413900134120DCE
:10223000279002A4E0120D81E4F5F0120B2E90011C
:1022400034120D279002A4120D33FDACF0C3940696
:10225000EC648094805002804DC3ED9464EC648003
:1022600094805050900134120D279002A4E075F034
:1022700002A4F582E92582F9EA35F0FA120A27FF6D
:10228000AEF07C007D021209DBEE8FF0120B0F80A6
:1022900023900134120D279002A4120D33C3E5F0F0
:1022A00064809480500E900134A3A3120D80E4F555
:1022B000F0120B2E9002A4E004F00229E7E4900152
:1022C0006DF022200265D202E4FFEF25E0248EF5B6
:1022D00082E43439120ECE120F9FECF0A3EDF0EF32
:1022E00025E02488F582E43439120ECE120EFDEC7E
:1022F000F0A3EDF0EF25E02494F582E43439120EDA
:10230000CE120FA9ECF0A3EDF00FEFB403BC9001D7
:1023100012A3120E9AFDF5828C83A3A3EFF0900115
:1023200014A3E08D828C83A3A3A3F0120EADF582DB
:102330008E83A3E0B4AA03123431120EADFF120E45
:10234000A4E0B41008EF120EA4E4F0D20A120EAD0D
:10235000FF241B120EA6E0700DEF241C120EA6E047
:10236000B41003123619120EAD2413120EA6E0FF9C
:10237000B410069001A27401F0EFB42005E49001BE
:10238000A2F0229002ACEEF0A3EFF0E556455570B6
:102390000C9002ACE0F555A3E0F55680169002AD26
:1023A000E02556FF9002ACE03555121B2AF555EF9B
:1023B00013F5560557E557D3940A400D85555385B7
:1023C0005654E4F555F556F557D3E5549400E553C6
:1023D0009400405A9002ADE09554FF9002ACE09515
:1023E00053FE1239C4C3EF940AEE648094805026E1
:1023F000AE53AF547C007D03120CAC9002AC121AA9
:10240000BFE4FCFDEB2FFFEA3E121BA97802120C81
:10241000509002AC80139002ADE02554FF9002ACC6
:10242000E03553C313FEEF13FFEEF0A3EFF090027D
:10243000ACE0FEA3E0FF22EF75F003A424B6F58222
:10244000E43401F583E58222F583E493FE7401937D
:10245000FFE4FCFD902F60E0F8A3E0F9A3E0FAA30D
:10246000E02FFFEA3EFEED39EC38222EF582E4350E
:1024700083F5832274242BF582E43402F58322E46D
:10248000E075F008A424D4F582E43401F58322EF4A
:10249000F0FCA3E0FE131313541F2225E024A4F53F
:1024A00082E43401F58322E0FF74017E00C8EFC8A6
:1024B0000822902F60A3A3E0FEA3E0FF22F583C3D0
:1024C0007401939FE4939E2225E02441F582E43435
:1024D0003922E0FCA3E0FDD39FEC9E2225E02455A9
:1024E000F582E43439227F727A027930121B069029
:1024F00002327401F0A37400F07444121AD974000B
:10250000F07446121AD97400F0A37448121ADA74DF
:1025100000F0A37432121ADA7400F0A3742E121AA7
:10252000DA7400F0A3742CF09002507401F0A374DC
:1025300000F0A3741C121ADA7400F0A37422F09055
:1025400002447401F0A37400F0A37436121ADA7412
:1025500000F0A3742A121ADA7400F0A37438F0752C
:1025600063007564C8900244121A97F9E5638564A4
:10257000F0120B0F900247121A97F9E475F06412EB
:102580000B0F90024A121A97F9E475F096020B0F9E
:10259000C10C41019A0041019B004101970041019A
:1025A0009F00C102C101C1044101A2004101960086
:1025B000C103C100C105430175000D0E4201A00019
:1025C000004201940000410191004102B800410223
:1025D000B9004202B30000C106C108C1074102B5FB
:1025E0001041022D0041022F10C10BC10A4102A26D
:1025F0000041022E104101A300001239DC0237D83D
:102600001204AB60E4FF3006121238DDF5828C83D1
:10261000E0FE54F0FFEE540FF0C20622121C052219
:10262000029203030A080D400EB60FFF0C020BFFC7
:1026300023F724042504070127282A2828182B1803
:10264000290F2C0F2D202E202F10262002110306DB
:102650000A100D400E800FFF0C020BFF23F4240420
:102660002504070127102A1028042B0429032C0312
:102670002D202E202F102620120F1B9000FEE06030
:102680001BE49002A4F09002A4E0FF246A120DC2A1
:10269000120FB3E0B416EFE49000FEF0E49002A451
:1026A000F09002A4E0FFC39403501174752F120D33
:1026B000A8E4F0A374FFF0120FB380E5E49002A445
:1026C000F09002A4E0FFC39403504A1233CC90026E
:1026D000A4E02475120F47FF12282EEF7031E41288
:1026E0000F899002A4E0B4010F120DA6E0FFA3E051
:1026F000900192CFF0A3EFF09002A4E0FFB4020F9C
:10270000120DA6E0FFA3E0900172CFF0A3EFF0124C
:102710000FB3022EA10236929002ABEDF09002AA06
:10272000122C6FA3F0EE5407A3F09002ACE0FFEC84
:10273000122C182F122C4CE0FD7C009002AD122CB4
:10274000878005C333CE33CED8F9FFEE5CFEEF5D54
:102750004E6062122C929002AA122C5FC083C0823B
:102760009002ABE0D082D08375F002120CA0122C44
:10277000B25042C3EF9DFFEE9CFE9002AAE0FD1214
:102780002CA8122C9D402E9002ACE0FFED122C18CC
:102790002F122C4CC083C082E0FF9002ADE0FE748B
:1027A00001C8EEC8088002C333D8FCF45FD082D0E1
:1027B00083F07F01227F0022758A50538AEF9000B8
:1027C000027411F09000017422F09000037433F051
:1027D0007599BF759A40E4FFFEC2950020960CD211
:1027E00095003096069000027487F00FBF00010E2E
:1027F000EF640A4E70E37590FF75999F759A607546
:1028000080FF7589FE759501000000E4FEFF3080B1
:10281000063095032096069000017487F00FBF00E4
:10282000010EEF640A4E70E6E4F5AB75AC1DF5AD34
:10283000F5AF7589FF75913F7599FFF59675931DF5
:10284000F59BF595F592F59A5388FED28AD20D2222
:102850009002A6EEF0A3EFF07F057A007953121AEA
:10286000A59002A6E07002A3E06003123656E49041
:10287000029BF0A3F07F10123838121B92A3121B98
:102880004A900230E0F9A3E0FFA3121A97121AE16E
:10289000900235121A97121B5290023B121A97128D
:1028A0001BFC90023E121A97121B52900241121A00
:1028B00097121BFC121C05E490025CF090025E1261
:1028C0000C6F00000000E4900262F0A3F0A3F0A3FC
:1028D000F0900230121A8F121AE1E490025DF0902B
:1028E0000186121C0C2230000875631B7564588029
:1028F000067563007564C8900235121A97121AD1D2
:10290000C39564EE9563501990025CE060249002D8
:102910004A121A97F9120A27FDC3EF9DEE95F0406F
:1029200011900180E07002A3E0702A90025C04F034
:10293000802390001BE0B42005121BBD800990018C
:1029400080E4F0A374C8F0E490025CF090017EF0A3
:10295000A3F0121C0590025CE06011900028E0904A
:10296000003AB410047410F0227420F022902EC0AB
:10297000E4F090019BF090019AF0FC74752C120F1A
:1029800047FE131313541FFDEE5407FEED14601B96
:1029900004702E90019AE0FD7401C8EEC808800210
:1029A000C333D8FC4D90019AF0801690019BE0FF54
:1029B0007401C8EEC8088002C333D8FC4F90019B55
:1029C000F00CECB403B590019AE0FF42ABA3E0FE3B
:1029D00042ADEFF4FF5289EEF4FE5299EF5295EEBC
:1029E000529A90019AE0F45296A3E0F4529B7F032E
:1029F000229002ABEDF09002AA122C6FFDEE54076C
:102A0000A3F0EC122C182D122C4CE0FB7A00900253
:102A1000AC122C878005C333CE33CED8F9FFEE5AE3
:102A2000FEEF5B4E704D9002AAE0FE122C182D12A4
:102A30002C4CC083C082E0FF9002ACE0FD7401C862
:102A4000EDC8088002C333D8FC4FD082D083F0EEAB
:102A5000122CA8122C289002AA122C5FC083C082CC
:102A60009002ABE0D082D08375F002120CA0EEF0A1
:102A7000A3EFF022023894E493A3F8E493A3400375
:102A8000F68001F208DFF48029E493A3F8540724C8
:102A90000CC8C333C4540F4420C8834004F4568088
:102AA0000146F6DFE4800B0102040810204080900C
:102AB0002D70E47E019360BCA3FF543F30E50954C0
:102AC0001FFEE493A360010ECF54C025E060A84030
:102AD000B8E493A3FAE493A3F8E493A3C8C582C827
:102AE000CAC583CAF0A3C8C582C8CAC583CADFE9FC
:102AF000DEE780BEC202E4FFEF120DEAE4F0A3F0CD
:102B0000EF120E14E4F0A3F074552FF582E43401B3
:102B1000F583E4120E30E4F0EF25E02467F582E45B
:102B20003401F583E4F0A3F0745B2F120EC6E4F0D9
:102B300074612F120D9EE4F0900164747EF0120E09
:102B4000F0E4F074252FF582E43401F583E4F00F0E
:102B5000EF640370A3E4900165F0A3F0900198F096
:102B6000A3F0900170747EF0900103F0E490016F87
:102B7000F022900196E014601B1460432402705D03
:102B80009001A2E0B4010A9001961233BED205D2A0
:102B900000C203227F02123808EF60077F02123959
:102BA000D0C2059001A2E070349001967402F0D278
:102BB00003C205C2007F031239D07F0302373E7F74
:102BC00003123808EF60167F031239D09001A2E09B
:102BD0009001967003F080031233BEC20322740189
:102BE000F07F021239D07F0212373E22120F1BEF04
:102BF00025E025E0249AF582E43439F583E49370E6
:102C000014902EC4120E57F5ABF45289120E589040
:102C10002EC5F08013902EC5E4120E57F5ADF45278
:102C200099120E58902EC4F0EF25E025E0249CF573
:102C300082E43439F583E493902EC3F0EF25E02548
:102C4000E0249DF582E43439F583E493902ECAF0B4
:102C5000229002A37408F0A3E4F0A3743FF0A374DD
:102C6000DFF0E4FDFCF9758A10538AEF009002A3AF
:102C7000E0FEA3E02DF582EE3CF583E493FF69F9D5
:102C80000DBD00010CBC37E5BDDFE29002A5123896
:102C9000D4E493699002B670091238D4A37412F088
:102CA00080061238D4A3E4F0758A50538AEF0022CC
:102CB000200A06200303300509E4FFFE123030C26B
:102CC0000A22900184E07002A3E06005121B81706B
:102CD000392000031235D37F011238381222D390E5
:102CE00002A4EEF0A3EFF07B017A0279A412358BF7
:102CF0009002A4E0F9A3E0FF900232121A97121A90
:102D0000E1120FC41230C61227361236CD22E4FE6D
:102D1000CFEECF1233CC902EC07419F0902EC0E0BD
:102D200030E2F9902EC4E4F0A3F0902EC0F0120F20
:102D30008974752E120F4775F002A42400120DB687
:102D4000E0FCA3E0FD900128120D2775F002EE12C1
:102D50000D84EC8DF0120B2E0EEEB403B322121B79
:102D600081702E9002A2E0700890017AF0A3746442
:102D7000F09002A27401F0900029E0B4200812340F
:102D80009012126680031237A59001887401F080BA
:102D900017E49002A2F0900029E0B42003123490CE
:102DA000900188E06002E4F00239A69002A6EBF000
:102DB000A3EAF0A3E9F090017AE07002A3E0703298
:102DC00090025DE0602CE490025DF07508017F01E7
:102DD0001238381222D39002A6121A97F9EE8FF009
:102DE000120B0F0508E508C3941040E2121B921263
:102DF0001BBD22300742C207902E42E0FFA3E090A5
:102E000002A6CFF0A3EFF01239177B5C7A12121BE7
:102E100059EF2BFBEE3AF9CFEBCF900250121A97F5
:102E2000121AE1902EC07402F09002A6E0FFA3E017
:102E3000902E42CFF0A3EFF02212082EE4F5F275A7
:102E4000F30875EEFF75EF3F75EA81F5F675EB0750
:102E500000E5EC30E7FBE4F5EC9002B6E0FEA3E021
:102E6000FF241B1238E5E5F3F0EF241C1238E5E5EA
:102E7000F2F075EB3022123917902E42E0FEA3E0FB
:102E8000240BFFEE34FFFE121B884009902E42E413
:102E9000F0A374F5F0902EC5E4F090022FE09000BE
:102EA00021F0121B59900250121A97F9EE8FF0027E
:102EB0000B0F300D37C3900193E09420900192E006
:102EC000940050069000037487F0C3900173E0945F
:102ED00020900172E0940050069000037487F0C2C5
:102EE0000D900003120E9A2406120D772290003ADC
:102EF000E0FC90022EE06C602E90003AE0FE900222
:102F00002EF090000BE090019FF0540FF0EEB420F3
:102F100005E04420800AECB4100B90019FE04410BF
:102F2000F090000BF0C28A2200000000FFFFFFFFBC
:102F30000000FFFFFFFFFFFFFFFFFF00FF0000009B
:102F4000FFFF000000FFFFFFFFFFFFFF000000008A
:102F5000FFFFFFFFFFFFFFFFFFFF000000009002E9
:102F6000A4EFF0E02424122C57E060037F012290AC
:102F700002A4E0FF2424122C577401F0EF122CBCA1
:102F8000122C289002A4E0122C7BEEF0A3EFF07F2D
:102F90000022121B9CF0FF74542FF582E43400F5DC
:102FA00083E0FE75F002EFA42400F582E5F0342EF4
:102FB000F583E49324C0F582E4342EF583EEF00F1C
:102FC000EFB416D322E4F5B2F5BA758D20438D2007
:102FD000538D7F53AAF7F58BE5DB20E217200C1405
:102FE000E4F58A758703000000758A50D20A9000C4
:102FF000297420F0758B1122758B11902F64744009
:10300000F0E4FEE4FF122C17122C4BE4F00FEFB4A7
:103010000AF30EEEB403EC7F09900224E4F0A3DF80
:10302000FC902F647480F022CBEFCB122C54E06024
:1030300024122C92EB122C7B122CB25018C3EF9D51
:10304000FFEE9CFEEB122CBC122C9D4008122C545F
:10305000E4F07F01227F00229002A9EFF012377284
:10306000E4F5099002A9E0FFE509C39F5007121D8E
:10307000C6050980EE902EC0E4F01221A390023024
:10308000EEF0A3EFF022ED131313541FFEED5407DF
:10309000FD122C17122C4BC083C082E0FFCEEDCE68
:1030A0007401C8EEC8088002C333D8FCF45FD08234
:1030B000D083F02212084E53A87F122F9812081EB8
:1030C0001238EC43A880122DDA9000FFE0600690E1
:1030D00001747401F0122DE4122AA3121C2D80F544
:1030E0009002B9E0FF04F0A3E0FCA3E02FF582E436
:1030F0003CF58322E0FEA3E0F5828E83229002B6A7
:10310000E0FCA3E022F582E43EF583229002B6E0E3
:10311000FFA3E09002BACFF0A3EFF0E4F5DA75DA9E
:103120004043DA2075D74075DA5875D90143A908AC
:1031300075B80875F80822121AE753997F1237728A
:10314000902E42E4F0A374FFF0902EC57402F07F3D
:103150000112282E438902121AED438002439980FE
:103160002201F40028002801F4009603E801F4038A
:10317000E81770006403E8003202580258012C017D
:10318000F403E8271000C8120F1BE4FF120DBF0F55
:10319000EFB416F8902EC4E4F0A3F01234EE12341B
:1031A000EE90016D7401F022009600960096009B4F
:1031B000009B009B008C008C008C000110100220F2
:1031C000100902401009E5B230E005E5AA20E0133D
:1031D000E490018AF075B28E75B6F9F5B743B20185
:1031E00043AA0122EE30E707C3E49FFFE49EFE22DC
:1031F00074242F122C57E4F022D2AF320239A600E9
:1032000000000000000000000000000000000000BE
:1032100000000000000000000000000000000000AE
:10322000000000000000000000000000000000009E
:10323000000000000000000000000000000000008E
:1037F00000000000000000000000000000000018B1
:1038000000000000000000000000000000000000B8
:1038100000000000000000000000000000000000A8
:00000001FF
